:020000040000FA
:020000001D28B9
:08000800A000030EA100210E6F
:100010008300A00E200E09009630A200A20B0E282D
:1000200008002C30A3000C20A30B132808000A3072
:10003000A4001120A40B19280800031383128501C2
:100040008601870188010313831600309F00FF306B
:100050008500FF308600FF308700FF308800FF30CA
:10006000890007110313831241309F000230920070
:1000700003138316FF3092000313831295010C3093
:1000800097009101121581018B0117201F151F196F
:0800900047281E0895004528D1
:02400E00793FF8
:00000001FF
